:020000040800F2
:10000000600600206D0100087501000877010008F6
:10001000790100087B0100087D0100080000000054
:100020000000000000000000000000007F01000848
:10003000810100080000000083010008850100081C
:100040008701000887010008870100088701000870
:100050008701000887010008870100088701000860
:100060008701000887010008870100088701000850
:100070008701000887010008870100088701000840
:100080008701000887010008870100088701000830
:100090008701000887010008870100088701000820
:1000A0008701000887010008870100088701000810
:1000B0008701000887010008870100088701000800
:1000C00087010008870100088701000887010008F0
:1000D00087010008870100088701000887010008E0
:1000E00087010008870100088701000800F002F876
:1000F00000F02CF80AA090E8000C82448344AAF196
:100100000107DA4501D100F021F8AFF2090EBAE893
:100110000F0013F0010F18BFFB1A43F0010318473B
:10012000D4030000E403000000230024002500267F
:10013000103A28BF78C1FBD8520728BF30C148BF4A
:100140000B6070471FB51FBD10B510BD00F031F832
:100150001146FFF7F7FF00F081F900F04FF803B404
:10016000FFF7F2FF03BC00F057F800000948804792
:1001700009480047FEE7FEE7FEE7FEE7FEE7FEE789
:10018000FEE7FEE7FEE7FEE704480549054A064BA1
:100190007047000011030008ED0000086000002017
:1001A0006006002060020020600200207047704757
:1001B0007047754600F02CF8AE4605006946534678
:1001C00020F00700854618B020B5FFF7DDFFBDE839
:1001D00020404FF000064FF000074FF000084FF0AE
:1001E000000B21F00701AC46ACE8C009ACE8C0093F
:1001F000ACE8C009ACE8C0098D46704710B50446AC
:10020000AFF300802046BDE81040FFF7A8BF000014
:10021000004870470000002001491820ABBEFEE7EF
:1002200026000200704710B500F002F810BD000073
:100230000CB50020019000903348006840F48030F5
:100240003149086000BF3048006800F40030009079
:100250000198401C0190009818B90198B0F5A06F62
:10026000F1D12948006800F4003010B1012000905D
:1002700001E0002000900098012843D12348006845
:1002800040F01000214908600846006820F0030093
:1002900008600846006840F0020008601A4840689C
:1002A000194948600846406848600846406840F47C
:1002B000806048600846406820F47C10486008462A
:1002C000406840F4E81048600846006840F08070DC
:1002D000086000BF0C48006800F000700028F9D0EA
:1002E0000948406820F00300074948600846406814
:1002F00040F00200486000BF0348406800F00C0076
:100300000828F9D10CBD0000001002400020024076
:1003100010B51348006840F0010011490860084614
:100320004068104908400E494860084600680E4978
:1003300008400B4908600846006820F480200860E7
:100340000846406820F4FE0048604FF41F008860B3
:10035000FFF769FF4FF000600449086010BD00001E
:10036000001002400000FFF8FFFFF6FE08ED00E07D
:10037000002107E0002200E0521C4FF6FF739A4272
:10038000FADB491C8142F5D37047000010B50446E2
:100390001648006840F0FF0014490860144840699E
:1003A00040F480401249486110480838006840EA2B
:1003B00014100E490839086000F086F80B480068F0
:1003C00040F0FF00094908600948406940F4804056
:1003D0000749486105480838006804F00F010843E0
:1003E00002490839086000F06FF810BD1408014098
:1003F0000010014010B504461648006840F0FF00A8
:10040000144908601448C06840F480401249C8602C
:1004100010480838006840EA14100E49083908608E
:1004200000F052F80B48006840F0FF0009490860EE
:100430000948C06840F480400749C860054808384A
:10044000006804F00F01084302490839086000F011
:100450003BF810BD14080140001001400E488069AF
:1004600040F014000C4988610C480D4908600005F3
:100470000C4948600220FFF789FF2820FFF786FF1C
:100480000E20FFF783FF05E08020FFF77FFF06A027
:1004900000F00EF8F8E700000010024022220200EF
:1004A00000080140001001404D616E6672656500F4
:1004B00010B5044603E02078FFF79CFF641C207809
:1004C0000028F8D110BD000000B50948C06840F40C
:1004D00000400749C8600220FFF74AFF044840690E
:1004E00040F40040024948610220FFF741FF00BD8F
:1004F0000010014004050008000000206006000014
:0405000028010008C6
:04000005080000ED02
:00000001FF
