:020000040800F2
:10000000600600206D0100087501000877010008F6
:10001000790100087B0100087D0100080000000054
:100020000000000000000000000000007F01000848
:10003000810100080000000083010008850100081C
:100040008701000887010008870100088701000870
:100050008701000887010008870100088701000860
:100060008701000887010008870100088701000850
:100070008701000887010008870100088701000840
:100080008701000887010008870100088701000830
:100090008701000887010008870100088701000820
:1000A0008701000887010008870100088701000810
:1000B0008701000887010008870100088701000800
:1000C00087010008870100088701000887010008F0
:1000D00087010008870100088701000887010008E0
:1000E00087010008870100088701000800F002F876
:1000F00000F02CF80AA090E8000C82448344AAF196
:100100000107DA4501D100F021F8AFF2090EBAE893
:100110000F0013F0010F18BFFB1A43F0010318473B
:10012000D8040000E8040000002300240025002675
:10013000103A28BF78C1FBD8520728BF30C148BF4A
:100140000B6070471FB51FBD10B510BD00F031F832
:100150001146FFF7F7FF00F0DDF900F04FF803B4A8
:10016000FFF7F2FF03BC00F057F800000948804792
:1001700009480047FEE7FEE7FEE7FEE7FEE7FEE789
:10018000FEE7FEE7FEE7FEE704480549054A064BA1
:100190007047000011030008ED0000086000002017
:1001A0006006002060020020600200207047704757
:1001B0007047754600F02CF8AE4605006946534678
:1001C00020F00700854618B020B5FFF7DDFFBDE839
:1001D00020404FF000064FF000074FF000084FF0AE
:1001E000000B21F00701AC46ACE8C009ACE8C0093F
:1001F000ACE8C009ACE8C0098D46704710B50446AC
:10020000AFF300802046BDE81040FFF7A8BF000014
:10021000004870470000002001491820ABBEFEE7EF
:1002200026000200704710B500F002F810BD000073
:100230000CB50020019000903348006840F48030F5
:100240003149086000BF3048006800F40030009079
:100250000198401C0190009818B90198B0F5A06F62
:10026000F1D12948006800F4003010B1012000905D
:1002700001E0002000900098012843D12348006845
:1002800040F01000214908600846006820F0030093
:1002900008600846006840F0020008601A4840689C
:1002A000194948600846406848600846406840F47C
:1002B000806048600846406820F47C10486008462A
:1002C000406840F4E81048600846006840F08070DC
:1002D000086000BF0C48006800F000700028F9D0EA
:1002E0000948406820F00300074948600846406814
:1002F00040F00200486000BF0348406800F00C0076
:100300000828F9D10CBD0000001002400020024076
:1003100010B51348006840F0010011490860084614
:100320004068104908400E494860084600680E4978
:1003300008400B4908600846006820F480200860E7
:100340000846406820F4FE0048604FF41F008860B3
:10035000FFF769FF4FF000600449086010BD00001E
:10036000001002400000FFF8FFFFF6FE08ED00E07D
:100370002DE9F0471B48006800F0020010B1194851
:100380004C3004684FF47A7094FBF0F794FBF0F172
:1003900000FB1145642095FBF0F895FBF0F100FBA4
:1003A00011560A2096FBF0F996FBF0F100FB116A5A
:1003B000802000F027F807F13001C8B200F05AF8A9
:1003C00008F13001C8B200F055F809F13001C8B2A7
:1003D00000F050F80AF13001C8B200F04BF8BDE867
:1003E000F087000000240140002107E0002200E027
:1003F000521C4FF6FF739A42FADB491C8142F5D337
:100400007047000010B504461848006840F0FF002F
:10041000164908601648406940F480401449486114
:1004200012480838006804F0F00140EAE1000F4982
:100430000839086000F0CAF80C48006840F0FF0076
:100440000A4908600A48406940F480400849486108
:1004500006480838006804F00F0140EA41000349EB
:100460000839086000F0B2F810BD0000140801401F
:100470000010014010B504461848006840F0FF0025
:10048000164908601648C06840F480401449C860A6
:1004900012480838006804F0F00140EAE1000F4912
:1004A0000839086000F092F80C48006840F0FF003E
:1004B0000A4908600A48C06840F480400849C8609A
:1004C00006480838006804F00F0140EA410003497B
:1004D0000839086000F07AF810BD000014080140E7
:1004E0000010014000B508480849086000050849A7
:1004F00048600220FFF786FF2820FFF783FF0E20C9
:10050000FFF780FF00BD000022220200000801402A
:10051000001001402348806940F01400214988619F
:100520000846806940F4007088614FF400404860DC
:1005300000041D490860FFF7D5FF4FF460001B4918
:100540000860002019491C31086007201749243130
:10055000086003201549083908600120FFF744FFAF
:100560000120124908390860FFF73EFF04200F49B7
:100570000839086000BF0D480838006800F0040022
:100580000028F8D1C620FFF73DFF09A000F012F8BF
:1005900007E0C020FFF736FF6120FFF76BFFFFF792
:1005A000E7FEF6E700100240000801401024014079
:1005B0006861690010B5044603E02078FFF75AFF30
:1005C000641C20780028F8D110BD000000B509484F
:1005D000C06840F400400749C8600220FFF704FFEC
:1005E0000448406940F40040024948610220FFF796
:1005F000FBFE00BD001001400806000800000020BE
:0806000060060000280100085B
:04000005080000ED02
:00000001FF
